:1000000008400020F505000051060000D368FF1FDE
:1000100053060000550600005706000000000000CF
:100020000000000000000000000000005906000071
:100030005B060000000000005D0600009958FF1FED
:100040005F06000061060000630600006506000010
:1000500067060000690600006B0600006D060000E0
:100060006F060000710600007306000075060000B0
:1000700077060000790600007B0600007D06000080
:100080007F06000081060000830600008506000050
:1000900087060000890600008B0600008D06000020
:1000A0008F060000910600009306000095060000F0
:1000B00097060000990600009B060000A558FF1F48
:1000C0009D0600009F060000A1060000A306000098
:1000D000A5060000A7060000A9060000AB06000068
:1000E000AD060000AF060000B1060000B306000038
:1000F000B5060000B7060000B9060000BB06000008
:10010000BD060000BF060000C1060000C3060000D7
:10011000C5060000C7060000C9060000030700006E
:10012000CB060000CD060000CF060000D10600007F
:10013000D3060000D5060000D70600003D1EFF1FB5
:10014000D9060000DB060000DD060000DF06000027
:10015000E1060000E3060000E5060000E7060000F7
:10016000E9060000EB060000ED060000EF060000C7
:10017000F1060000F3060000F5060000F706000097
:10018000F9060000291EFF1FFB060000FD06000007
:10019000FF06000001070000FFFFFFFFFFFFFFFF5A
:1001A000FFFFFFFFFFFFFFFFFFFFFFFFFFFFFFFF5F
:1001B000FFFFFFFFFFFFFFFFFFFFFFFFFFFFFFFF4F
:1001C000FFFFFFFFFFFFFFFFFFFFFFFFFFFFFFFF3F
:1001D000FFFFFFFFFFFFFFFFFFFFFFFFFFFFFFFF2F
:10040000FFFFFFFFFFFFFFFFFFFFFFFFFEFFFFFFFD
:10041000114A936B43F40063936302F5405282B038
:10042000936923F4E06343F480739361936943F029
:1004300003039361094BD3F8942022F04002C3F8E0
:100440009420D3F8902002F040020192019A002AF1
:10045000F7D002B0704700BF0080044000F00F40AA
:100460004F4B1A783F2A78D85A79500669D41A78AF
:1004700051073FD41B7B13F003032ED0012B494BB4
:1004800008BF4FF40043464A117B507810F0300FFC
:10049000C9B224D001F00301012920D0117801F064
:1004A0003801302920D0382921D011782022C1F3F9
:1004B000C2018A4092B2B3FBF2F3394AD27802F019
:1004C000E002802A34D018D8402A2BD0602A2CD0C1
:1004D000202A1BD04FF420721AE0334BD3E7117857
:1004E0000122C1F3C201E4E74FF4A062E3E74FF455
:1004F000C062E0E74FF40043DFE7C02A1BD0E02AE8
:100500001CD0A02AE6D14FF4B76201E04FF4A062FC
:100510005343264A526C120F0132B3FBF2F3244AC2
:10052000136070474FF4F062F2E74FF42062EFE798
:100530004FF43772ECE740F69502E9E740F6713286
:10054000E6E71A795B79184902F01F0203F01F03EE
:1005500001321833B1FBF2F2DAE71A7802F0C00286
:10056000402A08D15A78D20714D51A7A114BC2F30F
:100570004202D340CDE71A7802F0C002802AD0D1DF
:100580001B7B13F0030308D0012B064B08BF4FF46D
:100590000043BEE74FF40043BBE7034BB9E700BF9E
:1005A00000400640006CDC0280F0FA02008004404B
:1005B0000400002000093D00704700000B4A08B508
:1005C000D2F8883043F47003C2F88830084B4CF2FC
:1005D0002052DA814DF62812DA814FF4E9721A803E
:1005E000FFF716FFFFF7E8FF08BD00BF00ED00E0D2
:1005F000002005400820006800BF00BF0F4820F021
:1006000007008546FFF7DAFF0D480E490E4A88427B
:1006100004D00368136004300432F8E74EF6085043
:10062000CEF20000094901604EF68850CEF200007B
:10063000016851F47001016000F064F800000020CE
:1006400000000000100400000000FF1F0000FF1F5A
:10065000FEE7FEE7FEE7FEE7FEE7FEE7FEE7FEE772
:10066000FEE7FEE7FEE7FEE7FEE7FEE7FEE7FEE762
:10067000FEE7FEE7FEE7FEE7FEE7FEE7FEE7FEE752
:10068000FEE7FEE7FEE7FEE7FEE7FEE7FEE7FEE742
:10069000FEE7FEE7FEE7FEE7FEE7FEE7FEE7FEE732
:1006A000FEE7FEE7FEE7FEE7FEE7FEE7FEE7FEE722
:1006B000FEE7FEE7FEE7FEE7FEE7FEE7FEE7FEE712
:1006C000FEE7FEE7FEE7FEE7FEE7FEE7FEE7FEE702
:1006D000FEE7FEE7FEE7FEE7FEE7FEE7FEE7FEE7F2
:1006E000FEE7FEE7FEE7FEE7FEE7FEE7FEE7FEE7E2
:1006F000FEE7FEE7FEE7FEE7FEE7FEE7FEE7FEE7D2
:10070000FEE7FEE73D493E480A1A06D0072291431C
:100710008D46CC223A4800F06AF83A493A480A1A1B
:1007200009D00722914381F30988022282F31488B9
:10073000CC2200F05CF835483549364A00F03FF8E5
:1007400035483649364A00F03AF836483649374A8D
:1007500000F035F836483749374A00F030F8374866
:100760003749384A00F02BF837483849384A00F002
:1007700026F838483849394A00F021F838483949CC
:10078000002200F034F838483849002200F02FF8F1
:1007900037483849091A00F073F826482649884234
:1007A00005D00268043003B4904703BCF7E700208B
:1007B0008646EC46002000212F4A9047FEE78842FB
:1007C00014D0521A12D003460B431343032423427E
:1007D00006D1036804300B600431043AF9D1704744
:1007E000037801300B700131013AF9D1704788422A
:1007F00002D002700130FAE7704700000840002084
:10080000083800200848002008400020A08B000085
:100810000000002024000020880800009801FF1F2D
:10082000F873FF1FC48B0000B084FF1FB084FF1F4C
:10083000E87A0000F873FF1FFC73FF1FE87A0000DE
:10084000F873FF1FF873FF1FEC7A0000FC73FF1FA3
:10085000AD84FF1FC48B000008200020082000206A
:10086000240000200820002008200020082000206C
:1008700008370020083800208D68FF1F00000000A6
:080880005FF800F04372FF1F56
:100888002DE9F04F012A4FEA10448BB080B211D104
:100898000B7818444FF6F073984284BFA0F57F4058
:1008A800F13804449C4202D9A4F57F44F13C40EA63
:1008B80004403AE0002900F0F8800F2A22D94FF6C8
:1008C800F17641F2AF539A4237D8002AEFD00D465D
:1008D80016460F2E05F1100500F29F8022F00F0337
:1008E800194402F00F020A44914240F0D9804FF6B1
:1008F800F173B0FBF3F203FB1200B4FBF3F203FB5A
:100908001244D4E70A44914212D14FF6F073984248
:1009180088BFA0F57F404FF6F17288BFF138B4FB6D
:10092800F2F302FB134340EA03400BB0BDE8F08F3B
:1009380011F8013B18440444E5E7A2F5AD5201F56E
:10094800AE53103A01F11005099315F8103C15F84B
:100958000FBC15F80EAC15F8069C15F8058C15F8A3
:1009680004EC15F803CC03449B4415F80D0CDA4449
:1009780050440190019F15F80C0C38440290029FD6
:1009880015F80B0C38440390039F15F80A0C3844EB
:100998000490049F15F8090C38440590059F15F834
:1009A800080C38440690069F15F8070C3844814413
:1009B800C84415F8027C0790C644F44407EB0C00C1
:1009C8000890089F15F8010C5B443844019F534474
:1009D8003B44029F3B44039F3B44049F3B44059F89
:1009E8003B44069F3B44079F3B444B444344089F7A
:1009F800734463443B4403441C44099B1035AB4295
:100A0800A3D101F5AD51B0FBF6F3103106FB13008D
:100A1800B4FBF6F306FB134453E715F8103C1844EF
:100A280015F80F3C1F1803EB4003234415F80E4C30
:100A380015F80D0C3C442044234415F80C4C034491
:100A4800044415F80B0C2344204415F80A4C0344BD
:100A5800044415F8090C2344204415F8084C0344B1
:100A6800044415F8070C2344204415F8064C0344A5
:100A7800044415F8050C2344204415F8044C034499
:100A8800044415F8030C2344204415F8024C03448D
:100A9800044415F8010C23442044103E1C1818E7A0
:100AA80011F8013B184404441EE701203DE70068A3
:100AB80070470B0A017043700B0C090E8370C170EC
:100AC8007047C3690239023B8B4283BF4389006B7D
:100AD80001FB030000207047034600F10B010020D2
:100AE800C20142EA500213F8010B50FA82F28B421B
:100AF800D0B2F5D1704703684BB11A4612F8011B02
:100B08001F290BD93A29F9D11978302902D04FF089
:100B1800FF30704702339A42F9D1026000207047D3
:100B280038B5C3780446C3B100F13805426B407844
:100B38000123294601F0B0FC88B9616BA36A226AD7
:100B4800E070CB1A934208D2A378022B05D10A444D
:100B580060780123294601F09FFC002038BD012060
:100B6800FCE7C2F307238A76CB760378032B01BF11
:100B7800120C0A75120A4A75704738B5436B8B42D6
:100B880005460C4610D0FFF7CBFF60B922466878BF
:100B9800012305F1380101F069FC00281CBF4FF062
:100BA800FF3401206C6338BD0020FCE7002370B5DA
:100BB800C3704FF0FF3343630446FFF7DEFF00289E
:100BC80059D194F83830B4F83622EB2B03D01833C7
:100BD800DBB2012B48D84AF655239A4209D0B4F81B
:100BE8004330B3F5007F02D194F8453003BB0320AE
:100BF8001DE0234904F18A0304F1920513F8010B5F
:100C080011F8016B9D42A0EB06000ED00028F5D02C
:100C1800B4F84330B3F5007F05D194F8453013B1EB
:100C2800591E194207D0022001E00028F0D170BDFA
:100C3800591E1942DBD1B4F84630ABB194F84830AC
:100C4800013B012B10D8B4F849306BB1B4F84B30E4
:100C58007F2B06D804F15800FFF729FFB0F5803F35
:100C680002D3B4F84E3043B94AF65520824214BF35
:100C780003200220DBE70420D9E70020D7E700BFE4
:100C8800FC73FF1F01292DE9F84305460E4614465B
:100C98006ED9C3698B426BD90378022B3DD0032BE5
:100CA8004DD0012B64D101EB5108816A01EB582129
:100CB800FFF763FF38BB05F1380708F10109C8F3EE
:100CC800080816F001061FBF17F80820230103F0D3
:100CD800F00302F00F0214BF1343E3B207F8083021
:100CE800A96A0123EB7001EB59212846FFF745FF5C
:100CF80048B9C9F3080946B1C4F3071407F809400D
:100D08000123EB700020BDE8F88317F80930C4F31D
:100D1800032423F00F031C43F0E7816A01EB16213B
:100D2800FFF72BFF0028EED1760005F1380306F413
:100D3800FF769A199C55C4F307245470E0E7816A3A
:100D480001EBD611FFF719FF0028DCD1B60005F139
:100D5800380306F4FE7633441846FFF7A8FE24F05D
:100D6800704400F0704121431846FFF7A2FEC7E720
:100D78000220C8E72DE9F84305460E46FFF7D0FEE6
:100D88000446002849D131462846FFF79AFE05F166
:100D980038096863214607464FF40072484606F052
:100DA80067FE6C896402B4F5004F28BF4FF4004415
:100DB800B4F5007F2FD9204601F0ACFA804688B1FF
:100DC8002246002106F054FE640A00266B899E42E2
:100DD8000AD3404601F0A2FA6889801B18BF012097
:100DE800BDE8F8836408E3E768782346BA19414602
:100DF80001F052FB0028ECD12644E7E701366B8965
:100E08009E42E9D268780123BA19494601F044FBA9
:100E18000028F3D0E0E70026F1E70120E0E7F8B585
:100E28000446FFF77DFE0546002842D12378032BB0
:100E380037D12779012F34D104F1380601464FF410
:100E48000072304606F014FE552384F83632AA2381
:100E580084F8373252234122722184F8383084F8DA
:100E68003930612384F83A3084F81F3284F83B2003
:100E780084F81C1284F81D1284F81E22A16904F556
:100E88000870FFF716FE616904F50970FFF711FE97
:100E9800626A6078013262633B46314601F0FCFACF
:100EA800257100226078114601F00CFB003818BF4C
:100EB8000120F8BD48B10C2902D80A2902D9704787
:100EC8000F2902D0006901F045BA704703284B8BFF
:100ED80004BF8A8A43EA0243184670470129F8B5D5
:100EE80006460C464ED9C36999424BD20378022B69
:100EF80029D0032B34D0012B44D101EB5105816A51
:100F080001EB5521FFF739FE10B14FF0FF30F8BD66
:100F18006F1CB16AC5F30805354401EB572130460B
:100F280095F83850FFF729FE0028EED1C7F30807D7
:100F3800374497F8383045EA0320E3074CBF0009E7
:100F4800C0F30B00E3E7816A01EB1421FFF715FEFC
:100F58000028DAD1640004F4FF743444208FD6E703
:100F6800816A01EBD411FFF708FE0028CDD1A40057
:100F780006F1380004F4FE742044FFF798FD20F0D1
:100F88007040C4E70120C2E7F8B50C46012C05689B
:100F9800064611462BD9EB69A34228D92AB14FF04E
:100FA800FF322846FFF76EFE38B921463068FFF752
:100FB80095FF2746044608B90020F8BD012816D039
:100FC800431C16D0002239462846FFF75BFE00284E
:100FD800F3D1D5E90632911E8B4205D20133AB61BC
:100FE8002B7943F001032B71A242DED8E4E70220FB
:100FF800E3E70120E1E72DE9F041056880460F4667
:1010080011BBD5E905633EB1EA69B24204D933B9E7
:1010180000242046BDE8F081002BF9D00126344693
:10102800EB690134A34202D8012EF1D00224D8F88A
:1010380000002146FFF752FF78B301280AD001309B
:1010480047D0B442ECD1E3E72846FFF747FF012831
:10105800044601D80124DCE7421C3AD0EB698342FC
:10106800D7D8AA69002AD3D07C1CA34298BF0224EF
:10107800D8F800002146FFF731FF0128EAD0431CC9
:1010880027D038B16E69012E05D9EB699E4228BF79
:101098003E46C4E70CB93E46C1E74FF0FF32214651
:1010A8002846FFF7EFFD90B957B9D5E90632023A5D
:1010B80093426C6110D92B7943F001032B71A8E797
:1010C800224639462846FFF7DDFD0028EDD00128E5
:1010D800C0D14FF0FF349CE7013BAB61EBE72DE952
:1010E800F843076906682037B7F5001F24BF0023B7
:1010F800836183690446894673B1C7F30808B8F168
:10110800000F39D141690133836141B93389B3EBA8
:10111800571F31D80023A3610420BDE8F8837389E1
:10112800013B13EA572327D13046FFF7D7FE0128A2
:10113800054601D80220F0E7421C01D10120ECE766
:10114800F369834212D8B9F1000FE3D061692046F0
:10115800FFF751FF0546A8B10128EBD0431CEDD09D
:1011680001463046FFF706FE0028E7D165612946AB
:101178003046FFF7A6FCA061383646442761E66191
:101188000020CAE70720C8E7B1F5001FF8B50568D1
:1011980006460C4601D30220F8BDCA06FBD1826878
:1011A8000161BAB92B78022B01D9EB6A9BB92B895B
:1011B800B3EB541FEFD9E86AC6E905200028EAD046
:1011C80000EB54203835C4F308042544B061F561B8
:1011D8000020E1E713466F891A467F02BC42114698
:1011E80003D22846FFF76DFCE6E73068FFF776FE86
:1011F800431C024606D00128CDD9EB698342CAD9DF
:10120800E41BEBE70120C7E7F0B5002385B00B60CE
:101218000E461746FFF76FFC051EC0F20381854B8B
:1012280053F82540002C00F0FF80206901F08BF86E
:10123800002800F0FB803460237807F0FE0763B1D4
:10124800607801F0FBF8C30707D40FB1460702D452
:10125800002005B0F0BD0A20FBE7E8B200232370A8
:10126800607001F079F8C50700F1E2800FB141071D
:10127800F1D400212046FFF799FC022874D16E466C
:1012880004F5FF7304F23E2132461846FFF70FFCBF
:1012980010338B4242F8040BF7D1002556F8041B93
:1012A800002959D02046FFF781FC012855D8B4F809
:1012B8004330616BB3F5007F5AD1B4F84E5025B96D
:1012C80004F15C00FFF7F3FB054694F848602562DB
:1012D800731E012BA6704BD894F845306381002B00
:1012E80046D05A1E1A4243D1B4F8497027813A07AA
:1012F8003ED1B4F84B0018B904F15800FFF7D7FBFA
:10130800B4F84620A2B305FB06FC02EB17166644A8
:10131800B0422DD3801B9842B0FBF3FE28D3464B36
:101328009E4525D888194FF6F576B6450EF1020385
:101338000A4425D840F6F576B645C4E90912E361B2
:10134800206317D8A7B103EB430003F001036244FD
:1013580003EB5003012622E003200135042D9DD123
:10136800042805D1012074E70428FBD001289ED960
:101378000D206EE7002FFBD062445B0002260EE0D2
:10138800C4E90912B4F86220E3613A432063EFD15B
:1013980004F16400FFF78BFB9B000246032603F26F
:1013A800FF13B5EB532FE262E2D34FF0FF33C4E9EA
:1013B8000533032E4FF0800323712BD1B4F8683026
:1013C800012B27D101312046FFF7D7FB10BBB4F81A
:1013D800362220714AF655239A421BD104F138006F
:1013E800FFF765FB154B984214D104F50770FFF71A
:1013F8005EFB03F1FF5303F500532033984209D1F4
:1014080004F50870FFF753FBA06104F50970FFF7B6
:101418004EFB60610A4A2670138801339BB2138021
:10142800E38015E70B2014E70C2012E70F2010E7E4
:1014380003200EE728000020F5FFFF0F52526141FC
:101448002400002038B50D460446F8B1036813B9E6
:101458000920002413E01A78002AF9D08188DA8854
:101468009142F5D1186900F06EFF034680B12368F8
:10147800587800F0E3FF10F0010002D124682C60D6
:1014880038BD20680021FFF715FDE1E70920F6E7E0
:101498000F201C46F3E700002DE9F04F85B00368E4
:1014A800009300210446FFF76FFE0646002840F02F
:1014B80096804FF0FF3A4FF0FF08C4F82CA0C146C1
:1014C800A1690098FFF759FB0646002840F087807D
:1014D800E5692F78002F00F08680EA7AE52F02F080
:1014E8003F03A37103D0100704D50F2B04D0C4F811
:1014F8002CA04EE00F2B54D194F82B3059063ED433
:101508007A0644D5236995F80D80E36207F0BF0792
:101518006B7B43453DD16B8B002B3AD12E78009BDA
:10152800DFF8CC90D3F80CB006F03F06013E0D234F
:101538005E43012219F8013BEB5A6AB3FF2E28D803
:101548001846039300F09EFE711C02903BF81600AB
:10155800019100F097FE029A82421AD1039B0199E9
:101568001A460E46214B4B45E4D12B785B0603D532
:1015780012B13BF8163063B9013F5FFA87F90021D1
:101588002046FFF7ACFD0646002899D027E0B9456C
:10159800BED04FF0FF09F2E74FF6FF718B42E1D062
:1015A800F7E7B9F1000F04D12846FFF795FA40454F
:1015B80015D094F82B6016F0010698D104F120029A
:1015C80005F10B0115F8013B12F8010B8D42A3EB55
:1015D800000302D0002BF5D089E7002B87D13046D5
:1015E80005B0BDE8F08F0426F9E700BFA274FF1F1D
:1015F8009574FF1F2DE9F04F85B0036801930646E7
:101608008A4611F8013B2F2BFAD05C2BF8D0002327
:10161800B3609AF800301F2B00F2D6808023002197
:10162800304686F82B3005B0BDE8F04FFFF7ACBD6B
:101638000424FEE032F81730202B02D02E2B40F085
:10164800FD80013FF7E0994504D2BA4248D10B2BFF
:101658003DD101E00B2B34D196F82030E52B02D197
:10166800052386F8203044F00304E4B208F00C03A4
:101678000C2B03D008F00303032B02D144F002041F
:10168800E4B2A1070BD418F0010F1CBF44F01004FA
:10169800E4B218F0040F1CBF44F00804E4B286F862
:1016A8002B403046FFF7F8FE96F82B3000287AD00A
:1016B800042803D113F0040F08BF052005B0BDE8C6
:1016C800F08FBA4203D044F00304E4B25DD84FEA85
:1016D80088085FFA88F83A460B234FF00809E4E0D7
:1016E8007F2D3ED944F00201CDE902232846CBB232
:1016F80040F25231009300F093FD10F0800FDDE9C5
:101708000223054614D06A4900F07F054D5D45B1B6
:1017180068482946CDE9022306F050F9DDE902239D
:1017280008B3009941F00301C9B200915F2510E0A8
:10173800FF28ECD9591E894504D344F00304E4B2C8
:101748009946B2E006EB0901000A81F8200009F188
:10175800010906EB0901009C81F8205009F10109F3
:10176800A3E00094D4E7A5F1410189B2192902D870
:1017780048F00208EDE7A5F1610189B219299EBF79
:10178800203D48F00108ADB2E3E796F82020E52AAD
:1017980004BF052286F82020082B04BF4FEA8808DA
:1017A8005FFA88F862E75A0788D4B379DB0630D540
:1017B800019B03F138013369C3F308031944019B02
:1017C8001878FFF783FBB0603368D3F80CB00027B4
:1017D8001AF8010B00283FF42BAF40F2523100F009
:1017E8003DFD044698B11F287FF622AF2F2812D05E
:1017F8005C2810D07F2804D801462F4806F0DEF870
:1018080028B9FF2F03D02BF817400137E0E706204F
:1018180054E7052052E753461C782F2C9A4603F1CB
:101828000103F9D05C2CF7D01F2C8CBF00240124B5
:10183800A400ABF10202002F7FF4FCAE4FF00003CE
:101848002BF81730002FE2D000233BF81320202A72
:10185800194603F10103F8D009B92E2A02D144F040
:101868000304E4B2ABF1020232F817302E2B01D098
:10187800013FF9D14FF020334FF000097362336212
:10188800C6F82730C84608233BF811504A1C002DDB
:101898003FF47BAF202D05D02E2D7FF4D4AEBA4275
:1018A8003FF4D5AE44F00304E4B21146ECE700BFC0
:1018B8001574FF1F0E74FF1F0574FF1F2DE9F04FED
:1018C80090F82BB01BF0A00589B0044640F04A817F
:1018D8000768FA6832F81530002B6ED104F120063B
:1018E80096E807000DF114091BF0010F89E80700BD
:1018F8007FD0402384F82B304FF0010A99E8070085
:10190800B446FB68ACE803002CF8022BBAF1050FCB
:101918004FEA12428CF8002063D9981E524630F8DC
:10192800021F00294BD1CC46072102F00F0E0EF101
:101938003000392888BF0EF13700013990460CF87D
:10194800010D4FEA121202D0B8F10F0FEDD801F1D4
:1019580020030DEB03027E2002F8140C04F11F0093
:1019680000228A4206D010F801CFBCF1200F02F104
:10197800010E38D11F32224404F1270C07299BBFDE
:1019880001F120030DEB0300202010F8140C02F8DD
:10199800010F98BF01319445F0D12046FFF77CFD37
:1019A800804610BB0AF1010ABAF1640FA6D14FF0C4
:1019B8000708404609B0BDE8F08F01358AE74FF0C7
:1019C800100C01F0010E0EEB4202D30344BF82F467
:1019D800883282F02102BCF1010C4FEA5101F0D1AA
:1019E8009DE752469FE77246BBE70428E1D184F899
:1019F8002BB01BF0020F18BF0C354FF0000120462A
:101A080018BF0D23D4F800A016BFB5FBF3F50125C8
:101A18000135FFF7B9FB8046002840F08E808146EB
:101A2800A1695046FFF7A9F88046002840F0858054
:101A3800E3691B78E52B01D0002B75D109F1010969
:101A48004D4572D1013D51D021692046A1EB451188
:101A5800FFF79AFB80460028ABD13046FFF73CF8E9
:101A68000190A1693846FFF788F880460028A0D180
:101A7800FB680093E369019A5A73E9B24FF00F02C9
:101A88004FF00D0CDA72DFF8E48018734A1E0CFB75
:101A980002F29876D87684464FF0FF0918F801EBE1
:101AA8004FF6FF7A504503EB0E0B4BD103F80E901F
:101AB8008BF801900CF1010CBCF10D0FEED14FF633
:101AC800FF7C604503D0009830F812200AB941F035
:101AD800400119700123FB7000212046FFF7FFFA2F
:101AE800804600287FF465AF013DBAD1A169384628
:101AF800FFF743F8804600287FF45BAF01462022B9
:101B0800E06905F0B5FF03CEE36918605960B27863
:101B1800318819819A7294F82B30E26903F018031E
:101B280013730123FB7044E7814601212046FFF728
:101B3800D6FA804600283FF473AFB8F1040F3FF49B
:101B480036AF36E7009830F8120003F80E0002F1BD
:101B5800010A020A8BF8012052460028AAD14FF642
:101B6800FF70A7E74FF0060823E700BF9574FF1F33
:101B7800F0B585B0CDE9001003A814460391FEF72F
:101B8800BAFF051E28DB154F57F825604EB130699E
:101B980000F0D4FB18B90224204605B0F0BD00239C
:101BA8003370019E76B947F82560002CF4D001A95E
:101BB80000226846FFF728FB044601460198FFF714
:101BC80079F9E9E73146002301F8103BE8B200F063
:101BD800A7FB0028E7D1DEE70B24DDE7280000207B
:101BE8002DE9F04F91B0924601910446002800F08B
:101BF800198102F03F094A4603A901A8FFF704FB2F
:101C0800064688BB039F04974FF4007000F082FBE0
:101C1800054640B911213846FFF74CF911263046E0
:101C280011B0BDE8F08FF860019904A8FFF7E2FC55
:101C38000AF01C02804628B1CAB9284600F06EFB9B
:101C4800464611E09DF93B30002B02DA4FF00608BA
:101C5800F3E79DF81630002A7DD1DA0640F1868038
:101C6800284600F05BFB0426002323606EE004286E
:101C7800E3D104A8FFF722FE80460028DDD149F011
:101C8800080919F0080F3CD000F040FC0246014654
:101C98000B980E30FEF70DFF0B9811461630FEF725
:101CA80008FF0B993878FFF711F92023CB7200222F
:101CB8000B9980463846FEF754FF0B9B00221A7793
:101CC8005A779A77DA770123FB70B8F1000F13D0AF
:101CD800414604A8D7F834A0FFF756F983460028F0
:101CE80040F09B8051463846FEF747FF08F1FF3326
:101CF8007B6180460028A0D119F0080F18BF49F071
:101D080040097B6B0B99236261623878FFF7DEF834
:101D1800A060804601F11C00FEF7C9FE0021FB8887
:101D2800E06004F1280B82462760A38084F81090B5
:101D38006174E16161614FF40072584605F098FEE4
:101D480019F0200F1FD1284600F0E8FA0398314611
:101D5800FFF7B0F863E713F0110F11D11AF0040F71
:101D68008FD0284600F0DAFA08267DE71AF0020F2D
:101D7800C2D0DB07C0D5284600F0D0FA072673E7A3
:101D88004FF0070859E7BAF1000FDCD07B89C4F897
:101D980014A0BAEB432F4FEA432919D941462068CA
:101DA800FFF79CF801288046AAEB090A2AD9B0F166
:101DB800FF3F2AD0D145F1D34FF00009C4F818806D
:101DC800B9F1000F06D0284600F0A8FA4E464BE7B6
:101DD800C4F81880CAF30803002BB4D0414638462B
:101DE800FEF76FFEA0B100EB5A22E261787801237A
:101DF800594600F03BFB0028A5D0284600F08EFA93
:101E0800012631E74FF00209D8E74FF00109D5E77D
:101E1800284600F083FA022626E7284600F07EFAD4
:101E28005E4621E70926FAE62DE9F04F9A4687B083
:101E380000238946CAF8003005A904469046FFF7F2
:101E480001FB074608B9677C27B105983946FFF7B3
:101E580031F80AE0237C059D13F00103029308D1B1
:101E680007212846FFF726F80727384607B0BDE8B8
:101E7800F08F6369E668F61A464504F1280328BF1F
:101E88004646019316B931462846E0E76369C3F32D
:101E98000802002A77D16A89013A12EA53221BD133
:101EA8004BB9A06801280DD8022161742846FFF7B4
:101EB80001F80227D9E7A16920680392FFF70EF815
:101EC800039AEFE7431C06D1012161742846FEF707
:101ED800F1FF029FC9E7A061A1692846FEF7F1FD5D
:101EE8000028E1D0B6F5007F02EB00082FD36989FE
:101EF80002EB562088424FEA562B88BFA1EB020B13
:101F080068785B464246494600F0B0FA0028DBD1C3
:101F180094F91020002A0CDAE069A0EB0800584573
:101F280007D24FF4007204F1280109EB402005F0B4
:101F38006DFD4FEA4B28DAF800304344CAF8003008
:101F480063694344A6EB0806C14463619AE7E26902
:101F5800424516D094F910306878002B09DA0199B7
:101F6800012300F099FA0028AED1237C03F07F0307
:101F78002374019968780123424600F077FA002813
:101F8800A2D1C4F81C806169019BC1F30801C1F5A5
:101F98000078B04528BFB04642461944484605F087
:101FA80035FDC8E72DE9F04F9A4685B000238946EC
:101FB800CAF8003003A904461646FFF743FA074655
:101FC80008B9677C27B103983946FEF773FF08E024
:101FD800237C039D9A0708D407212846FEF76AFF49
:101FE8000727384605B0BDE8F08F6369F34228BF7C
:101FF800DE4304F128030093A6B16369C3F3080222
:10200800002A40F09380B5F80A8008F1FF3818EAF2
:10201800532826D16BB9A16869B92046FEF7EBFFB2
:10202800014640B9237C43F040032374002128462D
:10203800CBE7A169F1E7012906D10221617428469D
:10204800FEF738FF0227CCE74B1C06D1012161744B
:102058002846FEF72FFF0127C3E7A368A16103B94C
:10206800A16094F91030002B0BDAE26900996878C6
:10207800012300F011FA0028E8D1237C03F07F0344
:102088002374A1692846FEF71CFD0028D5D0B6F5B3
:10209800007F08EB000B37D3698908EB562088428C
:1020A8004FEA5623687888BFA1EB08035A46494689
:1020B800019300F0F1F9019B0028C7D1E169A1EB78
:1020C8000B0199420DD24FF4007209EB412104F142
:1020D8002800019305F09AFC227C019B02F07F0204
:1020E80022744FEA4328DAF80030E2684344CAF819
:1020F800003063694344A6EB0806C14463619A4211
:102108002CBFE260E36077E7E169636959450BD06A
:10211800E168994208D9687801235A4604F12801F0
:1021280000F0A4F9002891D1C4F81CB06069009BA4
:10213800C0F30800C0F50078B04528BFB046184481
:102148004246494605F062FC237C63F07F03237412
:10215800C9E72DE9F34101A90546FFF773F90446DC
:10216800002844D12B7C019F13F040043FD01B066C
:1021780014D5EA697878012305F1280100F08CF973
:1021880040B101213846FEF795FE0124204602B0F1
:10219800BDE8F0812B7C03F07F032B7400F0B6F9C7
:1021A800296A80463846FEF7E8FC0446F8B96E6AA4
:1021B800F37A43F02003F372AA6828683146FEF7E1
:1021C800D0FCE96806F11C00FEF773FC414606F1F5
:1021D8001600FEF76EFC0123B474F4743846FB70E5
:1021E800FEF71DFE2B7C23F0400304462B74019858
:1021F8002146FEF75FFEC9E737B50546FFF7A9FF99
:10220800044650B901A92846FFF71CF9044620B92D
:10221800286001460198FEF74DFE204603B030BD08
:102228007F2801D880B27047B0F5803F11D240F2C4
:10223800523399420DD1084A002332F8021B8142D9
:1022480001D19BB202E00133802BF6D18033D8B2A2
:1022580070470020704700BF5077FF1F7F280DD9B7
:1022680040F25233994208D1FF2806D800F10040C5
:10227800034B803833F8100070470020704700BFC8
:102288005077FF1FB0F5803FF0B522D21F4A204992
:1022980083B2B0F5805F28BF0A46141D34F8042CB9
:1022A8002146AAB1934213D334F8025C2E0AEFB246
:1022B80052FA85F5A84223DA082E09D8DFE806F095
:1022C800050A10131517191B1D00801A34F8103051
:1022D8001846F0BD9A1A02F001029A1A93B2F7E76B
:1022E800103B9BB2F4E7203BFBE7303BF9E71A3B96
:1022F800F7E70833F5E7503BF3E7A3F5E353F0E7D7
:102308000434002ECAD101EB4702C6E75E75FF1FF1
:10231800A274FF1F0146012000F05ABD00F07CBDE9
:1023280038B5054D0C4601222846114604F0C6FA78
:102338002560012038BD00BF3000002008B504F03A
:10234800C8FA012008BD08B54FF0FF3104F0F6FACD
:10235800012008BD04F0E0BA70B5324C2578AA0710
:1023680050D400284DD1304B1968D1B901221A60D8
:102378002E4A2F48936B43F4005393632D4B40F23E
:1023880003421A809A801A819A811A829A824FF49B
:1023980081721A8345F001054FF4287205F068FB35
:1023A8002570234D95F8246066B9314633460522D9
:1023B800284600F0FFF8284603F0B8F831462846CA
:1023C80003F0E2F82378DB071BD5194803F0C0FCBB
:1023D800B8B1174803F0E6FC1548012103F0D4F81A
:1023E800134803F0F3F878B1114803F0DFFC104804
:1023F8004FF42872002105F03BFB237843F00103DA
:1024080023702578284670BDA96A0B4804F032FE6F
:1024180023784FF4FA7023F00103237004F03AFA9A
:10242800EFE700BF000000202C00002000800440DF
:102438004000002000D004405078FF1F10B570B94C
:10244800084C0948237843F00203237003F080FC0A
:1024580018B1237823F002032370207810BD0120DF
:10246800FCE700BF000000204000002008B550B97C
:1024780007480078C00708D4064802F045FE00382F
:1024880018BF012008BD0120FCE70320FAE700BFC0
:10249800000000204000002008B550B90748007827
:1024A800C00708D4064802F021FF003818BF0120F1
:1024B80008BD0120FCE70320FAE700BF0000002068
:1024C80040000020D8B9D2B10E4B187810F00100A6
:1024D80013D1032913D8DFE801F01302070C0A4BC4
:1024E800D3F8903213607047074BD3F894321380B7
:1024F8007047054B93F86932F4E7032070470420CE
:10250800704700BF000000204000002000207047F6
:1025180001F04ABE024B1869C0F38010704700BF33
:1025280000F10F4008B50A4BD3F8A0305B0608D578
:10253800084A93682BB1084908695169C0F38010AB
:102548009847034B4FF0FF32C3F8A02008BD00BFE7
:1025580000D004405803002000F10F40114A034600
:1025680064205060002010700F485161C2E90230A9
:102578000E48826922F4702242F4302282610C4AA9
:10258800602082F83F034FF00040506002F1C042E3
:1025980002F571221269520602D50BB101201847C3
:1025A800704700BF580300202D1EFF1F00D00440B5
:1025B80000E100E02DE9F0410F4614469846054633
:1025C80020B90F490F48682204F090FD0E4E0F4BBA
:1025D800F3622023336300200D4B2E60336000F03C
:1025E800DDFD0C4B7060AB6141463846FFF7B6FF26
:1025F8002401094BE4B283F85143BDE8F08100BFE0
:102608006778FF1FA178FF1FE002002070030020F9
:1026180000100B405803002000E100E00D4B0E496C
:102628005A6B42F480625A639A6B42F480629A63EE
:102638000A6C22F4E06242F440720A644A6C22F4A2
:10264800E06242F440724A641A6922F003021A6195
:10265800002070470080044000A00440704700003C
:102668001E4B00221A809A701D4B9A6B42F48062AE
:102678009A639A6B42F400529A631A4A536D23F490
:10268800E06343F480735365936D23F4E06343F48C
:102698008073936502F540524FF48001936E23F4E2
:1026A800E06343F48073936602F5322202F5807288
:1026B8004FF0806353600C4B59644FF40011596418
:1026C800596D41F400115965596D41F480015965FE
:1026D800536943F080635361704700BFF0030020E3
:1026E8000080044000A0044000F00F4002280AD8EF
:1026F800012809D002280CD0084B4FF080629A605C
:10270800074B01221A547047064B4FF480029A6413
:10271800F6E7044B4FF40012F9E700BF00F10F4051
:10272800F003002000F00F4002280AD8012809D041
:1027380002280CD0084B4FF080625A60074B0022E9
:102748001A547047064B4FF480025A64F6E7044B5C
:102758004FF40012F9E700BF00F10F40F00300202A
:1027680000F00F40022807D8044A135C012B01D15E
:10277800FFF7DABFFFF7BABF704700BFF0030020CA
:10278800704710B5EFF3108472B603F033FB03F013
:10279800BBFFFFF763FFFFF763FF00F02BF8FFF7BE
:1027A800EFFF00F0CBFA84F3108810BD10B5044693
:1027B800403000F083FB0A2805D12379002B14BF91
:1027C80020201E2010BD0028FCD12079002818BF29
:1027D8001F20F7E78378052B01D803F075BC062B7B
:1027E80004D1034BD3F8B83003B11847704700BF82
:1027F800F40300200248C422002105F039B900BFC3
:10280800F403002038B50D46044610B902252846C1
:1028180038BD7022002105F02BF90123052D6370C6
:10282800A5701BD8204603F0EFFB05460028EED123
:102838000122114604F1080004F040F80122114673
:1028480004F1180004F03AF86FF00042294604F148
:10285800280004F033F801232370D8E7062DD5D1DA
:10286800034BD3F8A830002BD0D020469847DCE79C
:10287800F40300202DE9F0410E4615461F46044694
:1028880030B32AB323B3028840F201139A421FD10E
:1028980000F108084FF0FF31404604F04FF86EB9D8
:1028A8003B460122294604F1400000F0C9FA002401
:1028B800404604F031F82046BDE8F081012E05D1EC
:1028C8003B463246294604F15000EEE70324EFE781
:1028D8000324F0E738B5044608B3028840F2011330
:1028E8009A421CD1C378012B1BD100F108054FF087
:1028F800FF31284604F022F804F14000283400F0A3
:10290800A6FA204603F0E5FF6FF0004200212046BA
:1029180003F0D4FF284603F0FFFF002038BD032052
:10292800FCE71620FAE700002DE9F0410D460446C1
:1029380000284CD000294AD0028840F201139A425C
:1029480045D190F80380B8F1000F42D1036C002BF9
:1029580041D0036D002B40D000F108064FF0FF3145
:10296800304603F0EBFF04F1400000F070FA04F188
:10297800280704F1500000F06AFA384603F0A9FF6E
:10298800414638466FF0004203F098FF95E803008F
:1029980004F1380383E80300A378052B0CD82046FC
:1029A80003F04EFB054608B90123E370304603F0F7
:1029B800B3FF2846BDE8F081062B06D1084BD3F8B3
:1029C800B03013B120469847ECE70225EEE703251F
:1029D800EFE71725EDE71825EBE71925E9E700BF2D
:1029E800F40300202DE9F8430E4614460546002856
:1029F8005BD0002959D0002A57D0028840F2011331
:102A08009A4252D1C378012B51D100F118084FF0E6
:102A1800FF31404605F1500703F090FF384600F0BB
:102A28001FFA844217D9DFF88C903146384600F0F7
:102A380021FA38B1384600F013FAF0B13146384679
:102A480000F018FA013CA4B228460136FFF7C2FE8E
:102A5800002CEAD10BE0013C31463846A4B200F024
:102A680009FA0136002CF6D12846FFF7B3FE404696
:102A780003F052FF0020BDE8F883AB78052B0BD894
:102A8800284603F040FB012802D12846FFF7A2FEA2
:102A9800012003F0FFFECDE7062BF9D1D9F8BC30B1
:102AA800002BF5D028469847EDE70320E3E71620EA
:102AB800E1E700BFF40300202DE9F0410E46174678
:102AC800054668B361B3028840F201139A4227D1E0
:102AD800C378012B26D100F108084FF0FF3140469A
:102AE80003F02CFF31462846FFF760FE044605F147
:102AF80028000CB11F2C08D1012103F01FFF40460C
:102B080003F00AFF2046BDE8F081394603F016FFBE
:102B18000028F4D131462846FFF748FE0446EEE780
:102B28000324EFE71624EDE707B52BB1009005481D
:102B380004F0A0FA00BFFDE70346034804F09AFA40
:102B4800F8E700BFA678FF1FC878FF1F2DE9F041FE
:102B58002C4E142303FB006305465B68EFF31088D3
:102B680072B68BB3D3E900200F3121F00F0101F1C8
:102B78001004A04207D02031884222D91919001B1D
:102B88001A5148600A46002113F1100FC3E90014D6
:102B980003F1100024D1134616E0D2E900E0A04268
:102BA80005D1CCF800E011461A460B46EBE7814206
:102BB80013D21119001B42F804E04860CCF8001049
:102BC800F1E79C46002AE8D1142202FB05620020A6
:102BD800536088F31088BDE8F08194467246F1E7A7
:102BE8004FF0140C0CFB05610CFB0566CF68726096
:102BF8003C440F69044ACC60BC42C8BF0C619D606C
:102C0800DA60E6E7B8040020CCDDEEFF2DE9F043FA
:102C1800EFF3108872B648B3314A50F8041C914259
:102C2800A0F1100322D1D3F808E0BEF10F0F1DD890
:102C3800DFF8B4C02B4A5C68DA60142101FB0EC1CE
:102C4800CA684E68121BCA6016B940F8106C08E0D2
:102C58001D19B5420ED11A5940F8102C6A68224441
:102C68005A60142202FB0ECCCCF8043088F310888A
:102C7800BDE8F083E9D33168324609B1994212D3ED
:102C8800576802EB070901B34B450FD18D4204BFCA
:102C98002B681360274409BF6B68C2E90017DB196A
:102CA80053603346DDE70A460968E6E78D4207D1F7
:102CB80013602A6840F8102C6A6822445A60F0E7CA
:102CC800116840F8101C1360EBE74B4503D13C44F6
:102CD80011605460E5E7136040F8101CE1E700BF9D
:102CE800CCDDEEFF56341200B804002011F00F03BB
:102CF80010B405D0202A1AD91031103AC91A1A442A
:102D0800202A14D90B4B142404FB003322F00F02A1
:102D18009C6814449C600023C1E90032064B88601B
:102D28005DF8044BCB6001F11000FFF76FBF5DF851
:102D3800044B7047B8040020CCDDEEFF08B54FF413
:102D4800A07200210E4804F093FE0E490E4A521A52
:102D5800531C02D00020FFF7C9FF0C490C4A002081
:102D6800521AFFF7C3FF064B0A4A1A600022DA60BC
:102D78000122BDE808400848114603F09FBD00BF86
:102D8800B8040020B084FF1FFFFFFF1F0848002081
:102D9800FFFF0220DE78FF1FF80500200F282DE92D
:102DA800F0410D46044611461A460CD8DFF81C803F
:102DB80014235C4308EB0406776827B9FFF796FFEE
:102DC80048F80450F760BDE8F08100BFB80400205F
:102DD8000F2838B505460C4615D80D4B142202FBB2
:102DE80000339B688BB161B14FF0FF31094803F0A4
:102DF800A5FD21462846FFF7A9FE0446054803F02D
:102E08008BFD204638BD0024FBE71C46F9E700BFD0
:102E1800B8040020F805002010B5044660B14FF052
:102E2800FF31064803F08AFD2046FFF7EFFEBDE8B4
:102E38001040024803F070BD10BD00BFF805002027
:102E4800C380002301608280836083817047EFF331
:102E5800108272B600238360838182F310887047E2
:102E6800EFF3108272B6C3888189581A80B282F350
:102E78001088704738B50446EFF3108572B6838919
:102E8800C2889A4218D001338288838103890068F6
:102E980013FB02F310FA83F004F0B8FD2389E288EB
:102EA80001339BB29A42238103D0002085F3108816
:102EB80038BD00232381F8E70B20F7E738B504462F
:102EC8000846EFF3108572B6A389C3B1013BA28807
:102ED800A3816389216813FB02F311FA83F104F0DB
:102EE80095FD6389E28801339BB29A42638103D0DE
:102EF800002085F3108838BD00236381F8E70A2095
:102F0800F7E70000064B9A79D20753BF054B064AEC
:102F18001B7A186842BF1068C3F34203D840704751
:102F2800004006400C0000200800002010B50F4BA0
:102F38001B7B03F00303012B0CD0022B12D09BB98F
:102F48000B4C236823B90B490B48DA2204F0CEF85E
:102F5800206810BD094C2368002BF9D105490848A1
:102F6800DF22F3E70748F4E70020F2E700400640D5
:102F78000C060020E378FF1F2579FF1F08060020B4
:102F88003779FF1F006CDC0210B5124CA379DB0601
:102F98001CD4FFF7CBFF23786178227BC3F3C203ED
:102FA80011F0300F20FA03F002F0030200D00AB14A
:102FB800022A04D1062B03D0072B05D0400910BDE7
:102FC8001423B0FBF3F0FAE70C23FAE7024B186876
:102FD800F5E700BF004006400C00002010B5084B84
:102FE8001B781B060AD5074C23682BB906490748E6
:102FF80040F2671204F07AF8206810BD0020FCE760
:10300800005006400C060020E378FF1F2B79FF1FB5
:10301800104B1B68C3F38143022B10B50AD0032B56
:1030280013D0ABB9FFF7DAFFA0F500435842584177
:10303800C00310BD084C23682BB9084908484FF451
:10304800C17204F053F82068F3E74FF47A70F0E7A0
:103058000020EEE70070044008060020E378FF1F18
:103068003D79FF1F0C4A436802F5805110B54B6447
:1030780003784C681B0403F4403324F4403423439E
:103088004B60437811689B0403F4402321F44021EA
:103098000B43136010BD00BF0070044010B50C4C0A
:1030A80063789A0701D5002010BDA3799B06FAD44E
:1030B800FFF76AFF0028F6D0E378E278C3F34113FC
:1030C8005B0003EBD213034A32F813305843EBE7A3
:1030D800004006405679FF1F034B187810F0020095
:1030E80001D0FFF70FBF70470040064038B50D4DBF
:1030F800A87910F0400014D0FFF718FF044628B94B
:1031080009490A4840F2F92203F0F0FF2B7968795F
:1031180000F01F0003F01F0318300133B4FBF3F471
:10312800604338BD00400640E378FF1F4A79FF1F1F
:10313800084B5B68C3F30143012B04D0032B04D075
:103148002BB9FFF7ABBFFFF7D1BF0348704700208B
:10315800704700BF00800440006CDC02084B9B797C
:10316800C3F38103022B09D0032B03D0012B03D116
:10317800FFF7C8BEFFF7BABFFFF790BFFFF7D6BE8D
:103188000040064010B5FFF7FFFE0446FFF7E6FFD4
:10319800B4EBD00F94BF2046002010BD08B513280B
:1031A80047D8DFE800F00C0C151C23462A2E3246BF
:1031B80046363A3E424646460A48204808BDFFF78A
:1031C800CDFF1F4B5B6C1B0F0133B0FBF3F0F5E732
:1031D800FFF7C4FF1A4B5B6CC3F30363F4E7FFF715
:1031E800BDFF174B5B6CC3F30353EDE7FFF7B6FF67
:1031F800134B5B6CC3F30343E6E7BDE80840FFF7F6
:1032080097BFBDE80840FFF703BFBDE80840FFF7D8
:10321800E5BEBDE80840FFF7B5BFBDE80840FFF7C9
:103228005BBFBDE80840FFF739BFBDE80840FFF7BE
:103238005DBF0020C2E74FF47A70BFE7006CDC0284
:10324800008004400C4A137B03F0030383420CD034
:10325800137B00F0030003F0FC030343137340F2F5
:10326800DC5300BF013BFCD104E0117B01F0FC0101
:103278000B431373002070470040064070B51E4B87
:103288009C799D791E7AC6F342069642C4F381045E
:10329800EDB217D01B789B0701D4012C09D1EE079A
:1032A80007D5154B5D7805F0FE055D709D79ED0736
:1032B800FCD4114D2B7A520002F00E0203F0D00319
:1032C8001A432A720C4A537801F0010503F0FE03F1
:1032D8002B435370137803F0FC030343012C137042
:1032E80001D0830705D5044A937903F001038B4283
:1032F800FAD1002070BD00BF0040064010B504465A
:1033080028B90E490E4840F2F93203F0EFFE627810
:103318000C4B02F01F021A715979A27801F0E001F2
:1033280002F01F020A435A711A7921780A4342F0BF
:1033380040021A719A795206FCD510BDE378FF1F36
:10334800A97DFF1F00400640016849F6970399428E
:1033580030B522D9124B99428CBF02210121114A62
:103368000479137803F0F00323430F4C1370637848
:10337800457903F0C3032B4343EA011363701378C1
:10338800817903F05F030B4313702DB113781A068C
:1033980002D5A3799B07FCD530BD0021DFE700BF2C
:1033A80000127A00005006400040064038B50D462D
:1033B80029B91549154840F2697203F097FE144B74
:1033C8005A7802F0FD025A701A7802F03B0242F075
:1033D80080021A709A7902F01C02082AFAD15A79E6
:1033E8000B4C02F0BF025A71A3799A06FCD4284606
:1033F800FFF784FF637943F040036371A3799B0669
:10340800FCD5002038BD00BFE378FF1FA97DFF1F52
:103418000040064070B506460D4614462AB90C49C8
:103428000C4840F6820203F061FE3046FFF70AFFBF
:1034380021462846FFF7BAFF074A137803F03F03EF
:1034480013709379C3F38103032BFAD1002070BD65
:10345800E378FF1FA97DFF1F0040064030B5A0B1EB
:1034680043680BB90A4B43600A4A436802F11805DE
:10347800144603CCAC4218605960224603F1080395
:10348800F6D120681860002030BD0420FCE700BF9A
:10349800100600206879FF1F38B5456804460135D5
:1034A80045600F23044814224FF47001A84763684D
:1034B800013B636038BD00BF04F0014038B5456882
:1034C8000446013545600123044813224FF40021C6
:1034D800A8476368013B636038BD00BF04F0014042
:1034E80010B5044621B9FFF7D7FF2046FFF7E6FFDE
:1034F800002010BD38B50E4D70232B70836C044628
:103508000133836428469847A36C013BA3642A7857
:103518009106D3B207D4DA0607D413F0010F0CBF13
:103528000020692038BD6720FCE76820FAE700BF63
:1035380000000240013B10B5DBB241EA020423421D
:103548000AD18368994209D31144C2681344994245
:103558008CBF6620002010BD6520FCE76620FAE7D6
:10356800830701D1006870470022431E104613F8F4
:10357800011F91400832202A40EA0100F7D1704724
:1035880010B50346D0B14FF0A0514FF48052C0E9B6
:103598000F120B4A0B4C846407CA84E8070093F89F
:1035A8004C20094822F0030242F0020283F84C2022
:1035B8000022C3E914024FF48022DA6510BD00BF6F
:1035C8008479FF1F50060020080800042DE9F843FD
:1035D8001F4690F8343006461446FFF7ABFF054601
:1035E800F8B9134B9F421FD1376BD6F81080013CB6
:1035F8003C44B4FBF8F308FB134212B103FB088305
:103608005C1EDFF830900AE027F07F4343F0106338
:10361800C9F804303046FFF76DFF38B94744A74270
:10362800F2D92846BDE8F8836B25FAE70546F8E79E
:103638006B66656B000002402DE9F84F804690F8F4
:1036480039701E4614461AB904252846BDE8F88F75
:103658003B463246FFF76EFF05460028F5D1D8F8FD
:103668003090DFF854A0002EEFD02046FFF778FF07
:10367800042FCAF8080004F1040B0DD129F07F4388
:1036880043F0C063CAF804304046FFF733FF88B9F7
:10369800B944F61B5C46E6E7082FD5D15846FFF734
:1036A8005FFF29F07F43CAF80C0004F1080B43F0D0
:1036B800E063E7E70546C8E7000002402DE9F74F59
:1036C80090F835B09A465B4606461746FFF732FF34
:1036D800814688B9356B7369F268B2FBF3F86C1EE2
:1036E8004444C8F100031C40A54208BF05EB080488
:1036F8004FEA0A2A10491FB9484603B0BDE8F08FBF
:10370800631B25F07F42BB4242F0807228BF3B46D4
:103718004A60B3FBFBF24AEA024242F0FF0201931D
:1037280030468A60FFF7E6FE20B9019B4444FF1A41
:103738001D44DFE78146DFE7000002402DE9F84F2E
:10374800814690F837B017461E468BB35B46FFF7A5
:10375800F1FE044608BB9DF82880D9F830504FEA9E
:103768000868A6EB050A134E68F07F480AEB0500C7
:103778009FB125F07F4242F000727260C6F808805F
:10378800FFF7EEFEF0604846FFF7B4FE60B10B9B12
:1037980003B11D600C9B1BB904462046BDE8F88F99
:1037A8000C9A00231360F7E7A7EB0B075D44DDE7EE
:1037B8000424F2E70000024098B191B10A4B9B78CB
:1037C800DAB203F00303022B09D0084B084802F0D1
:1037D800C002802A08BF03460B6000207047054BD3
:1037E800FAE70420704700BF00000240A53CC35A16
:1037F800A55AA55A3CC33CC310B550B9042007E0EC
:103808001144C2681444A14206D842781A700020B4
:1038180010BD8468A142F3D26620F9E708B5E8B97B
:1038280004201AE0194A32F813309B02184A4263FE
:103838004FF401620287B3F5004F4FF00002C360F6
:10384800426288BF5B094FF0200298BF4FF4806343
:10385800C2628362FFF794FE002008BD037923F05B
:103868003F03002243F02F0302808260037102228B
:103878004FF48053C0E90432064BDB6CC3F3036397
:103888000F2BCFD14FF48013D0E700BF9079FF1FE3
:103898001010080400800440F7B51F460DF1070317
:1038A80004460D461646FFF7A7FF78B99DF807C0EE
:1038B800642000FB0C4332461D6329463B460CFB43
:1038C800004003B0BDE8F040FFF780BE03B0F0BD94
:1038D800F7B51E4617460DF10703324604460D4656
:1038E800FFF78AFF78B99DF807C0642000FB0C43F6
:1038F8003A461D63294633460CFB004003B0BDE839
:10390800F040FFF799BE03B0F0BDF7B51F460DF1C3
:10391800070304460D461646FFF76EFF78B99DF873
:1039280007C0642000FB0C4332461D6329463B4612
:103938000CFB004003B0BDE8F040FFF7BFBE03B08A
:10394800F0BD2DE9F3471F460DF10703DDE90B9A9A
:103958009DF8288004460D461646FFF74DFF98B996
:103968009DF807C0642000FB0C4332461D632946BE
:103978003B460CFB0040CDE90B9ACDF8288002B0FD
:10398800BDE8F047FFF7DABE02B0BDE8F087FFF701
:1039980013BF00282CD05AB3072908D801390629A3
:1039A8000BD8DFE801F00E101517191D1F0020298C
:1039B8001AD021291AD06A207047036913600020A1
:1039C8007047C368FAE7C3684169B3FBF1F3F5E7E9
:1039D8004369F3E78368F1E70379C3F30013EDE77D
:1039E800C369EBE7036AE9E7C36BE7E7036CE5E75D
:1039F800042070474B6830B59D0718BF23F00303B8
:103A0800044618BF04331046626C18BF4B60D1E9F6
:103A18000135D2B25D43B2EB950F4FEA950303D25D
:103A28001B1A934228BF13460344984200D130BD65
:103A3800CA68256A42F820500130F6E74B6830B56D
:103A48009D0718BF23F00303044618BF043310462C
:103A5800626C18BF4B60D1E90135C2F307425D4380
:103A6800B2EB950F4FEA950303D21B1A934228BF76
:103A780013460344984200D130BD0A6952F8202009
:103A880022620130F6E7000008B5064B984206D0DE
:103A980005480649E42203F029FB012008BD00205F
:103AA800FCE700BF00100B40EF79FF1FAE79FF1F46
:103AB80038B505460C4629B91649174840F24B1245
:103AC80003F014FB607A2B696969AA6988B1032835
:103AD800E36010D118021B0E43EA01232361090E8B
:103AE800EB69E06041EA0221120E42EA03226161B9
:103AF800A261002038BDE1690029FAD00828F8D869
:103B08004FF4A372C240D207F3D51942F1D040F264
:103B1800A660EFE7AE79FF1F287AFF1FF8B50546C4
:103B28000C4629B94349444840F22F6203F0DEFAB3
:103B38002E6BAB6B1E4016F0C00F07D073064CBF40
:103B4800E368236913B1216A284698473B4B334001
:103B580033B363682BB93749394840F2BD2203F0C3
:103B6800C5FA16F4702F0AD0236843B9E76937B14C
:103B7800236A40F2A66221462846B84708E06168F1
:103B88002846FFF795FFE769002842D0002FEFD1BC
:103B9800AB6B23F4702323F00103AB630023636052
:103BA800284B1E4225D023682BB92249264840F2CB
:103BB800DD2203F09BFAA26823685B7813B9234BD4
:103BC8001E4233D1B7062AD521682846FFF712FFCF
:103BD800A060B1070DD540F2AA62E7694FB1236A28
:103BE80021462846B847AA6B194B1340AB630023FC
:103BF8002360F20504D5636913B1216A2846984702
:103C0800730704D5A36913B1216A284698472E6320
:103C1800F8BD002FBCD0236A40F2A962ABE7F006DA
:103C2800D7D521682846FFF709FFD1E740F2A762F8
:103C3800D3E700BFAE79FF1F117AFF1F01000F0005
:103C4800207AFF1F32007001387AFF1F00007011C0
:103C5800CDFF8FEE38B504460D4629B92A492B48C1
:103C680040F22A3203F042FAAB78012B05D12649FB
:103C780027484FF44B7203F039FAAB68013B7F2BAE
:103C880005D92149234840F22E3203F02FFA6B68F8
:103C9800013B7F2B05D91C491F4840F22F3203F006
:103CA80025FA2046FFF7F0FE1C4A136B43F4003355
:103CB8001363E36A43F0E063E362A26A2B78606C03
:103CC80022F44E720BB142F008026B78A9781B01FE
:103CD800090201F4407103F030030B4329791343BF
:103CE80000F0FF221143AA68120402F47F020A437B
:103CF8006264A362E36A43F00703E3620022084BAD
:103D08006363A263236338BDAE79FF1F4D7AFF1F3B
:103D18005C7AFF1F827AFF1FD17AFF1F0080044060
:103D280037017F1110B5C46A01F0E0632343C36211
:103D3800C36A0B4203D1101E18BF012010BD002A10
:103D4800F9D0013AF4E70000F8B5044616460D46E6
:103D5800C9B93E493E4840F2AF3203F0C7F93B4982
:103D68003C484FF46C7203F0C1F9B5421ED30027EA
:103D7800B5FBF7F0B04240D90137102F3FD8B5FB5B
:103D8800F7F07A1E14E0B1FBF2F762B3914204D364
:103D9800B7F5805FECD90020F8BD2C492D484FF4C9
:103DA8006C7203F0A3F9B7F5805FF4D828460022B7
:103DB8000027E16A21F00801E162E16A12013B0291
:103DC800D2B29BB2134321F47F2222F47F621343C1
:103DD80043F46023E362636A1B07FCD5E36A43F09C
:103DE8000803E362D8E719491A484FF46C7203F0E4
:103DF8007DF9B7F5805FCED8B9E7102F20D93909FA
:103E08004FF48070B0FBF1F24A43B2F5807F12D1D3
:103E1800012910D0B7FBF1F202FB01F087420CD860
:103E2800012A134638BF0123B5FBF3F5B5FBF1F0C2
:103E380052B94F08BDE70131E4E701320844EDE724
:103E4800002F9ED13A46B4E7013AF2E7AE79FF1F58
:103E58001E7BFF1F307BFF1FC36A43F00063C362F2
:103E6800C36A1B0103D4081E18BF0120704700292C
:103E7800F9D00139F4E7000038B505460C4629B9F0
:103E88001849194840F23B4203F030F92368B3F56A
:103E9800005F05D31349154840F23C4203F026F968
:103EA8006368B3F5803F05D30E49114840F23D429F
:103EB80003F01CF9236861686A68C3F30C0343EADA
:103EC800014302F4604213436B60A368AB60E3688C
:103ED8002169084A1B0603F07C530A401343EB6030
:103EE80038BD00BFAE79FF1F4D7AFF1F647BFF1FEF
:103EF800B77BFF1F3700FB002DE9F0410E4686B067
:103F0800074615460021142201A8984603F0B0FD83
:103F1800727A012A37D0023A072A05D8DFE802F078
:103F28002A2D3030332A33330024337A032B08BF49
:103F380044F4400495B144F40014B8F1000F25D1BD
:103F4800EB680BB144F01004AB68012B03D92A7855
:103F5800FAB944F022046A68CDE90123736803932F
:103F6800336801A93846CDE90434FFF785FF06B068
:103F7800BDE8F0814FF4D814D7E74FF41024D4E704
:103F88004FF40034D1E74FF4D014CEE744F00104E5
:103F9800D6E744F02604DEE72DE9F041DDE90654D2
:103FA80002B153B90139012943D9002D41D0B4FADE
:103FB80084F040098000BDE8F081002D39D0002C44
:103FC80037D0012935D0022901D00020F3E715F0B8
:103FD800030630D1A1071CBF24F0030404344FF6B4
:103FE800FF71C3F35C03B4FBF1F10131994225D8A9
:103FF800DFF84C802C444FF6FC7E02F1040C631B66
:10400800B3F5803F3ABF1B0443F0230343464CF803
:10401800365042F8363006F1010634BF2F4605EB1C
:104028000E07B14203D8002303608265CDE73D4601
:10403800E5E70420BFE74FF4D560BCE70320BAE703
:104048002100FCFFF8B5064615461F460C4629B95F
:10405800164917484FF4B76203F048F82DB91349C9
:10406800144840F2B95203F041F8002124222046B6
:1040780003F0FEFC2B68E3606B682361AB68636147
:10408800EB68A3612B693046C4E90737FFF7FCFCEE
:10409800094B0A4A43F82040094B30461A60FFF79B
:1040A800F3FC084B4FF400329A60F8BDAE79FF1F5D
:1040B800117AFF1F1A7CFF1F940600203534FF1F5A
:1040C8009006002000E100E02DE9F74F0C9F044620
:1040D8000E4691469B462FB92E492F484FF4BD6294
:1040E80003F004F8A56AD7E90078C5F3012A554614
:1040F800B8F1000F4BD04FB1BA68B2F5803F46D245
:10410800636AD90720D540F2A4601AE0636ADA0727
:10411800F9D40023C6F804803760B3603368002BF5
:104128002FD0BAF1000F30D11C4B00252363A26BAE
:104138001343A36320462B463A464146FFF7DCFE6D
:10414800002003B0BDE8F08F636A9B07DBD4B9F1A8
:10415800000FDED0F96801B939697B685A43CDE9A7
:1041680000125B464A4629462046FFF715FF0028FD
:10417800CFD00023C6F804803760B3603568002DBF
:10418800D2D1074A2263A36BD2E7064BCEE70420BD
:10419800D7E700BFAE79FF1F097CFF1F33007F01FF
:1041A80001000F0003007F1110B5084C23682BB9DC
:1041B8000749084840F2516202F098FF064B21680F
:1041C8001B6806489847BFF34F8F10BD9406002020
:1041D800AE79FF1F2B7CFF1F9006002000100B40BC
:1041E80008B5154B984215D003F58053984213D063
:1041F80003F58053984211D003F5805398420FD0AD
:1042080003F5FA2398420DD003F5805398420BD159
:10421800052008BD0020FCE70120FAE70220F8E7A6
:104228000320F6E70420F4E7044805498E2202F04B
:104238005DFF0620EDE700BF00A00640847CFF1F5D
:10424800437CFF1F2DE9F041044616460D4621B96F
:1042580058495948D72202F049FF2B6823B95549D4
:104268005648D82202F042FF554B9C4211D003F524
:1042780080539C420DD003F580539C4207D003F530
:1042880080539C4203D003F5FA239C4212D10127A4
:1042980000E00827AB79BB4204DD46494948DA22E9
:1042A80002F024FFEB79BB4204DD42494648DB2299
:1042B80002F01CFF2B68B6EB031F4FEA031734BF4D
:1042C8000127B6FBF7F77600B6FBF3F8B6FBF8F66E
:1042D800B34234BFF61A9E1B6422B3FBF2F303EB1E
:1042E8004303B34263D32046FFF77AFF374B53F8B3
:1042F80020100B0C03F1804303F58E2389B2186854
:1043080001228A4002431A60E37803F0F303E37062
:10431800237803F0E00343EA1723DBB2FFB22370EC
:104328006770A37A08F01F0803F0E00348EA03085F
:1043380084F80A80AA7AA378920002F0040203F0B3
:10434800E80313432A7912B1134343F01003A3700F
:104358006B7922785B0103F0200302F0DF0213433C
:104368002370AB79E374EB796375237C43F088039E
:104378002374637C43F0C00363742B7A1BB1637BA3
:1043880043F0080363736B7A1BB1637B43F001034B
:104398006373E378EA7ADBB20AB143F008032A7B55
:1043A8000AB143F00403E3700020BDE8F08140F255
:1043B800F530FAE7437CFF1F4D7AFF1F9E7CFF1FF5
:1043C80000A00640B97CFF1FFF7CFF1F487DFF1F30
:1043D80010B5044628B90849084840F28F1202F07F
:1043E80085FE00236360A360E3604FF4E13323603C
:1043F8000123E37110BD00BF437CFF1F4D7AFF1FEF
:1044080021F0784121F47001037821F4736121F0DF
:104418000F010B43DBB20370C37843EA1123DBB20D
:10442800C370837943EA1143DBB28371437C43EA67
:1044380011634374704721F0784121F470010378C7
:1044480021F4736121F00F0123EA01030370C3789B
:1044580023EA1123C370837923EA11438371437CD0
:1044680023EA1163437470470278C17883791B0487
:1044780043EA01231343427C43EA026020F0784078
:1044880020F4700020F4736020F00F007047027968
:104498004179037B807C1B0443EA0123134343EAED
:1044A8000060704710B5044620B9094909482C2214
:1044B80002F01CFE13220021601C03F0D9FA01232C
:1044C8002370E370A3714FF6FF73236110BD00BF23
:1044D800607DFF1FA17DFF1F38B505460C4621B939
:1044E8001E491F48552202F001FE627823785200C7
:1044F80002F002021343E27943EA8203227A43EA92
:10450800C203A27943EA0213627943EA4213227989
:1045180043EA8213E27843EAC21343F48043EFF399
:10452800108172B64CF22052EA814DF62812EA81C7
:104538000022AA82A278120202F4E062EA82E26809
:10454800100C92B228816A812269100C92B2A8805C
:10455800EA802B8081F3108838BD00BF607DFF1F83
:10456800A17DFF1FEFF3108372B60360704780F3DD
:104578001088704702F08EB970B5094B1C78054653
:1045880054B948B1074E01221A703046FF2202F092
:1045980095F92E60204670BD43F2DD70FBE700BF41
:1045A80099060020AC06002008B548B1006838B16B
:1045B80002F0C4F9002843F2DE7008BF002008BDED
:1045C80043F2DD70FBE708B558B1006848B1EFF376
:1045D80005831BB102F09DF9002008BD02F09CF98B
:1045E800FAE743F2DD70F8E710B5044658B1074B17
:1045F8001A7822B9012206481A7002F0C5F9044B4C
:104608002360002010BD43F2DD70FBE79806002010
:104618009C06002008B548B1006838B102F0C8F916
:10462800002843F2DE7008BF002008BD43F2DD70A9
:10463800FBE710B550B1006840B1EFF305840CB149
:1046480000BFFDE702F0A4F9204610BD43F2DD707B
:10465800FBE700207047000070B58AB005460C469D
:10466800164600211C2203A8009103F001FA072333
:10467800029326B12404012303948DF8113002AB70
:1046880069462846019300F011F9059A044B134036
:10469800034340F2097008BF00200AB070BD00BF94
:1046A8000800F9FF30B58BB005460C4618220021EA
:1046B80004A8009103F0DCF93723029301232404B2
:1046C8008DF81130694602AB28460394019300F037
:1046D800EDF858B9059A074B13403BB912F0200F73
:1046E80040F20C7308BF18460BB030BD40F2097099
:1046F800FAE700BF0800F9FF10B58AB002AB04461C
:10470800002120221846009103F0B2F96946019071
:10471800204600F0CBF840F20973002818BF18466D
:104728000AB010BD30B58BB004460D4618220021E2
:1047380004A8009103F09CF91023CDE90235012368
:104748008DF81130694602AB2046019300F0AEF8AF
:10475800059A044B1340034340F2097008BF002038
:104768000BB030BD0800F9FFA2F2A662042A96BF7A
:1047780003490121895C03F1640000F08BB900BF93
:10478800357EFF1F70B501F1640605460C463046BC
:104798004FF4007100F07EF94FF48071304600F05C
:1047A800DDF9AB6B23F08003AB6364B1E46E54B105
:1047B800A36813B161690020984723691BB1BDE85C
:1047C80070400120184770BD70B501F164060546B8
:1047D8000C4630464FF4807100F05CF94FF40071DC
:1047E800304600F0BBF9AB6B23F04003AB6364B118
:1047F800E46E54B1A36813B1616901209847236935
:104808001BB1BDE870400120184770BD38B5C56EB2
:104818002B6904464BB1002098472268936A43F0FD
:1048280008039362012000F0FFF92368586A10F426
:10483800803009D02B6933B1012098472268936AE8
:1048480023F008039362012038BDF8B504460E46EC
:1048580051B30B78022B27D10568C1666B6B43F007
:1048680080036B63C0232B63FFF7D0FF0746012F3C
:1048780004F164000BD14FF4807100F00BF9B368B8
:104888000BB90020F8BD716938469847F9E74FF42D
:10489800007100F0FFF86B6B43F040036B63AB6B88
:1048A80043F04003AB63ECE70120EBE72DE9FF475A
:1048B800044600F1740800230E4640464FF0FF31CD
:1048C80004F16407039300F077F90F21384600F0EC
:1048D80045F904F1340A40F2A4690096D4E90B239F
:1048E80020685146FFF7F0FB48450546F5D048B922
:1048F80003AB4FF0FF320F21384600F005F90128CD
:1049080013D101252468666AF20705D564224FF0A1
:1049180000712046FFF706FAB3071BD564224FF053
:1049280080612046FFF7FEF914E0039B9A07E8D45C
:1049380032687AB15E070DD41807E2D403AB4FF0A2
:10494800FF320C21384600F0DFF80128D9D0039B4C
:104958001907D6D4404600F043F9284604B0BDE80C
:10496800F087407A02280BD1012B1BD101EB820280
:104978008A4200D170470B681BBA41F8043BF7E73D
:10498800012809D101EB8202914200D170470B68DE
:104998005BBA41F8043BF7E720B91BB901EB820287
:1049A800914200D170470B681BBA41F8043BF7E706
:1049B80070B5044686B028B9214922484FF4C5721B
:1049C80002F094FB0021142201A803F051F840F6EC
:1049D800C7224FF6FF73C4E9162304F174054FF498
:1049E80080532366284600F0D5F84FF0FF3128465B
:1049F80000F0E2F8264602236372A3728023C4E91A
:104A0800033356F8340B04F10801FFF723F90E4B72
:104A180005930E4B01930E4B0293234654F8640BF7
:104A280001AA3146FFF70EFB204600F021F80446A4
:104A3800284600F0D5F8201E18BF012006B070BD2A
:104A4800B07DFF1F177EFF1F8140FF1FE140FF1F42
:104A58009D40FF1F7047026819B1012914BF022148
:104A68000121936A23F0060343EA410393627047E6
:104A780010B5044620B905490548282202F036FB3E
:104A88000021201DFFF778FD002010BD3A7EFF1F92
:104A98008D7EFF1F73B50D46044620B90B490C489F
:104AA800702202F023FB002601A80196FFF75AFDA9
:104AB800236801982B4344F8043BFFF758FD204630
:104AC800FFF781FD304602B070BD00BF3A7EFF1F80
:104AD8008D7EFF1F38B51446054620B9074908489A
:104AE800892202F003FB24B9044906488A2202F00D
:104AF800FDFA2B682360002038BD00BF3A7EFF1FF7
:104B08008D7EFF1FA17EFF1F2DE9F0470E469046C0
:104B18001F46054620B90F490F483E2202F0E6FA23
:104B280005F1040943F2DE7A41464846FFF73CFDA9
:104B3800504504460CD00028F6D13A46314628465E
:104B4800FFF7C8FF3B681E42EED02046BDE8F0875D
:104B58000120FBE73A7EFF1F8D7EFF1F73B50D46D0
:104B6800044620B909490A489D2202F0BFFA0026E6
:104B780001A80196FFF7F6FC2368019823EA0503CC
:104B88002360FFF7F4FC304602B070BD3A7EFF1F89
:104B98008D7EFF1F10B5044620B905490548C3227C
:104BA80002F0A4FA2046FFF71FFD002010BD00BF49
:104BB8003A7EFF1FAE7EFF1F38B50D46044620B96A
:104BC80005490648D52202F091FA29462046FFF702
:104BD80021FD002038BD00BF3A7EFF1FAE7EFF1FBB
:104BE80010B5044620B905490548E32202F07EFACB
:104BF8002046FFF71EFD002010BD00BF3A7EFF1FB4
:104C0800AE7EFF1F10B5044620B905490548F022BD
:104C180002F06CFA2046FFF71CFD002010BD00BF13
:104C28003A7EFF1FAE7EFF1FFFF7A4BC38B54FF4D6
:104C38007A75B0FBF5F405FB1403002B18BF01349B
:104C48002046FFF797FC05FB04F038BD2DE9F0433B
:104C580091B00C46189F91461D46064628B91C4936
:104C68001C484FF42E7202F041FA2FB918491A481D
:104C780040F2B92202F03AFA0DF10C08182200218C
:104C88000AA802F0F5FE14220021404602F0F0FEC8
:104C980006234FEA89020893E4070F23934064F040
:104CA8007F44954024EA030440220123CDE90423EC
:104CB8008DF829303068069708AB2C4301A9CDE957
:104CC80001830994FFF7F2FD11B0BDE8F08300BF3E
:104CD800C27EFF1F0D7FFF1F1A7FFF1F2DE9F047C0
:104CE800884686B01746064628B93A493A4840F2F7
:104CF8003F3202F0FBF906F1380929F003090024D4
:104D080009F10405402221462846CDE903440594CB
:104D180002F0AEFE336B012B05D84FF4E164204658
:104D280006B0BDE8F087B6F858325A05F5D50095B3
:104D38003B46424621463046FFF788FF10B140F215
:104D48000974ECE70123052230682946FFF709FEBC
:104D58006B68EC68ADF81230AB68ADF80E301A0C21
:104D6800230CADF80C302402EB7CADF81020A4B273
:104D78001C4306AB03EB480333F80C3CFB40DB0752
:104D8800CBD54FEA880A24FA0AF404F00F04BC428F
:104D9800C3D100953B46424601213046FFF756FFF6
:104DA80004460028CBD101230222306809F1100102
:104DB800FFF7D7FDEB68EA7C1B029BB2134323FA8B
:104DC8000AF303F00F0340F21672BB4218BF1446F1
:104DD800A5E700BFC27EFF1F0D7FFF1F38B50D4638
:104DE800044628B9054906484FF4A87202F07EF92E
:104DF80020682946BDE83840FFF754BCC27EFF1F33
:104E08000D7FFF1F10B5044628B90549054840F233
:104E1800571202F06BF92068BDE81040FFF76CBC30
:104E2800C27EFF1F0D7FFF1F0A46D0E90001FEF773
:104E38008BBF08B50346084653B11A78022A05D134
:104E48005B680BB9002008BD9847FBE7012AF9D039
:104E58004FF4E160F7E700002DE9F0410D468AB014
:104E6800064628B92349244840F24F2202F03EF969
:104E78004FF47A735D4340F235744FF0000833689D
:104E88001B685B6AD9012FD51822002104A8CDF828
:104E9800008002F0EDFD0D230293F36A1B040393D7
:104EA80001238DF8113002AB01930A273068694657
:104EB800FFF7FCFC044640B1013FF7D140F23473E0
:104EC80098420BD140F234740AE0059BDA0503D509
:104ED800C3F34323072BF5D140F23574002DCED10F
:104EE80020460AB0BDE8F0817D20FFF79FFE2D1A0D
:104EF800F4E700BFC27EFF1F0D7FFF1F2DE9F043BF
:104F0800DFF898808BB004460D46914640F22C7627
:104F1800002720682946FFF7C9FC90B32B6823B304
:104F28001822002103A8009702F0A2FD0C23029387
:104F380003238DF8103002238DF81130694602AB37
:104F480020680193CDF82480FFF7B0FC4FF4167168
:104F58002046FFF781FF40F2347398421AD1B9F125
:104F6800000F11D009F1FF39D3E7B9F1000F0BD0C9
:104F7800B042F7D194F89832023B012BF2D840F2B4
:104F880029700BB0BDE8F08394F89832023B012BEE
:104F9800F7D8F4E740F20970F3E700BF0800F9FF1B
:104FA8002DE9F04F044691B028B94849484840F2E5
:104FB8005E5202F09BF800250DF1200904F1380734
:104FC8002022294648460DF10C0827F00307CDE9B1
:104FD80001553E1D02F04CFD4FF0400A14222946AF
:104FE800404602F045FD52462946304602F040FD53
:104FF8004FF416712046FFF72FFF40F234739842A2
:105008005BD1E16A2046FFF7E9FE0546002857D143
:105018000D234FF0010B032201A920460893CDE987
:1050280004ABCDE901898DF829B00696FFF766FF34
:10503800284A0B9B1A40024345D15B462068102240
:105048003146FFF78EFC3B1D05D12049224840F22E
:105058004C5202F04BF87B68A4F87E329A0F84F821
:105068007C22C3F3407284F87D227368C4F88032CE
:10507800B268130E84F88432130C84F88532C2F3B4
:10508800033384F88632F368190E41EA0222A4F841
:105098008822C3F3854284F88A22C3F3014284F844
:1050A8008B22C3F30332C3F3032384F88C2284F8DE
:1050B8008D32284611B0BDE8F08F4FF4E365F8E76C
:1050C80040F21575F5E740F20975F2E7C27EFF1F59
:1050D8000D7FFF1F0800F9FF297FFF1F38B50D4618
:1050E800044628B90649074840F28D5201F0FEFFF0
:1050F800E16A20682A46BDE83840FFF7ADBA00BF2C
:10510800C27EFF1F0D7FFF1F2DE9F04F97B0CDE93D
:1051180002121C46054628B96E496F4840F27B6268
:1051280001F0E4FF029B2BB96A496C4840F27C62AB
:1051380001F0DCFF2CB96749694840F27D6201F053
:10514800D5FF039BD5F89022E318934205D961490E
:10515800644840F27E6201F0C9FF05F5277305F146
:105168003807184627F003074FF0FF31009304373C
:10517800FFF722FD4FF000090123002C61D0029AAD
:1051880095F825A002EB4926039A01964A44049211
:10519800BAF1000F66D113B116F0030158D04FF4DD
:1051A80000720021384602F063FC013CB8464FF01B
:1051B800010B0026202231460EA8CDE9076602F031
:1051C80057FC1422314609A802F052FCD5F8943253
:1051D800B3F5007F33D32B681B6EB3F5007F2ED356
:1051E8004FF416712846FFF737FE40F234739842A1
:1051F80025D14FF40073CDE90A3B01239B458DF877
:1052080024300CBF112312230E93049B0F936B6B56
:10521800CDF830809B075EBF049B5B020F93012390
:105228008DF84130304B15930EAB0893032209AB30
:1052380007A928460793FFF761FE00283BD040F2F4
:1052480009740098FFF7CCFC204617B0BDE8F08F32
:105258002A68D26D944226D9A61A1446DDF804802D
:10526800012309E02A68D26DA24236BFA61A002699
:105278001446002BF2D1B846B8F1000F09D11549F0
:105288001648059340F2AD5201F030FF059B4FF0F0
:10529800000864B90F491248059340F2AE5201F074
:1052A80025FF059B03E0002EE9D0B0460E46A34635
:1052B8009A4634467DE795F82530D94443B9BAF182
:1052C800000F05D101984FF40072394602F09EFB99
:1052D800534652E7C27EFF1F0D7FFF1F357FFF1F1A
:1052E800447FFF1F557FFF1F0800F9FF2DE9F04F8E
:1052F800A3B0154603919946044628B985498648BE
:1053080040F2BB6201F0F2FE039B2BB9814983484E
:1053180040F2BC6201F0EAFEB9F1000F05D17D4907
:105328007F4840F2BD6201F0E1FE09EB05030193FD
:10533800019AD4F890329A4205D97649794840F2D0
:10534800BE6201F0D3FE04F527734FF0FF31184613
:1053580004F138070293FFF72FFC27F003070437FF
:105368004E464FF0010B66B3039B94F825A0A9EBBA
:10537800060803EB4828BAF1000F3AD1BBF1000F39
:1053880002D018F0030F23D041464FF4007238467C
:1053980002F03CFBB84601250DF1480B0021202204
:1053A8005846CDE9041102F063FB1422002108A835
:1053B80002F05EFBD4F89432B3F5007F2AD240F2B3
:1053C80009760298FFF70CFC304623B0BDE8F08F51
:1053D8002368DD6DB54228BF3546B8F1000F05D109
:1053E8004C494E4840F2E65201F080FE5DB1DA4683
:1053F800D2E72368DD6DB54228BF3546BBF1000F03
:1054080008BFB846E9E74349454840F2E75201F08A
:105418006DFEECE723681B6EB3F5007FCFD34FF426
:1054280016712046FFF718FD40F234739842C6D132
:1054380001238DF820308DF851303B4B1993019B97
:105448000A954FF40072012DA3EB060309920CBFD5
:1054580018221922CDE91223626BCDF83080920709
:105468005CBF5B021393032208AB04A92046CDF866
:1054780014B00493FFF742FD00283BD04FF000081A
:105488000DF1680B202241465846CDE9068802F006
:10549800EFFA142241460DA802F0EAFAC7F8008094
:1054A8004FF416712046FFF7D7FC40F23473984248
:1054B80085D1E16A2046FFF791FC00287FF47FAF91
:1054C80016231A9304220123CDE90E238DF8713097
:1054D800206810970DAB06A9CDF81CB00693FFF70E
:1054E800E5F900287FF46BAF0F4B1D9A13400BB9F9
:1054F8003D682DBA94F82530761B43B9BAF1000FF0
:1055080005D14FF400725146384602F0B1FAD3463D
:1055180029E700BFC27EFF1F0D7FFF1F357FFF1FDA
:10552800447FFF1F557FFF1F0800F9FF10B5044691
:1055380028B91249124840F63A0201F0D7FDA3698A
:105548002BB90E490F4840F63B0201F0CFFD94F805
:10555800243063B1A1690B78013B012B02D8206884
:10556800FFF773F9012384F82430002010BD206868
:10557800FFF71EFA0028EDD00120F7E7C27EFF1FD3
:105588000D7FFF1F837FFF1F38B50D46044628B9DE
:105598000C490D4840F65E0201F0A8FD63680BB1A6
:1055A8002846984745B1A068002808BF4FF4C8703E
:1055B800BDE83840FFF738BBE068002808BF642022
:1055C800F6E700BFC27EFF1F0D7FFF1F2DE9F04FDA
:1055D800044691B028B97D497D4840F61C0201F087
:1055E80085FD04F527784046FFF7D4FA4FF0FF31E0
:1055F8004046FFF7E1FA01212046FFF7C5FF2CB925
:105608007249734840F2C37201F070FD94F8243077
:105618002BB96E496F4840F2C47201F067FD002152
:1056280020686163FFF717FA6B492068FFF7FCFBF6
:10563800A062606900284ED00378002B4BD0236805
:105648009B6DDA0647D513F4445F44D00121FFF778
:10565800F0FB0146002836D04FF09977012384F8F3
:105668009B32236864211868FEF7F6FB2046FFF793
:10567800C9FB014600283BD1039018220AA802F072
:10568800F7F94FF4D5734FF0080CCDE908C308AE0D
:1056980009238DF8293004964FF00A0903AD2068D4
:1056A8002946FFF703F920B99DF82C30AA2B00F002
:1056B800DF82B9F10109F2D12046FFF7A3FB0028E8
:1056C80000F0DC8214E02046FFF75EFF012120464F
:1056D800FFF75AFFC0E74FF44817BFE70A20FFF764
:1056E800A3FAB9F1010940F0D982002F00F0FA823B
:1056F80040F22A7562E0032384F89B32F8E7002120
:105708001C2209A8039102F0B3F902230893206828
:105718000496032329468DF82930FFF7C7F8002897
:105728004AD104F138070DF12C0C3A460DF13C0E24
:10573800E146634603CB7345106051609C4602F115
:105748000802F6D1636C84F844321A0E84F84022B9
:105758001A0A236CE16BA4F842221A0E84F8452237
:105768001A0C84F8462284F848321A0A0B0E84F878
:105778004932A36B84F847221A0E42EA0122C3F386
:105788000B230021C4F84C22A4F850321C2209A88B
:1057980003914FF0030A02F06BF9082329462068A9
:1057A800CDF820A08DF829300496FFF77FF8014640
:1057B800A0B140F20E7501E040F20D754046FFF7CA
:1057C8000FFA284611B0BDE8F08F00BFC27EFF1F58
:1057D8000D7FFF1F9D7FFF1F801A0600DDF82CB08C
:1057E80003904FEA1B43E36218220AA802F040F92B
:1057F800092308934FEA1B431B0420680993294691
:105808008DF829A00496FFF751F8002840F0DB80B6
:105818003A460DF13C0C4B4603CB63451060516092
:10582800994602F10802F6D1636CB4F84420990F46
:105838001B0C84F85532236C84F8541252BAA4F81D
:1058480056221A0DA4F858221A0442BFB4F85C2252
:1058580042F00102A4F85C225A0442BFB4F85C2268
:1058680042F00102A4F85C229A0442BFB4F85C2218
:1058780042F00402A4F85C22DA0448BFB4F85C22BF
:10588800C3F3034044BF42F00802A4F85C2284F842
:105898005A02E26B00297BD140F6FC7101EA8303CE
:1058A800C2F3C26184F86412C2F3026184F865121B
:1058B800110D01F00E0184F86612C2F3824143EA29
:1058C800927384F86712C2F3C231C4F8603284F864
:1058D8006812013302318B4009284FF40071C4F873
:1058E8009032C4F894124ED1500442BFB4F85C32DE
:1058F80043F01003A4F85C32C2F3C61384F869328B
:10590800A36B02F07F0284F86A22C3F382629902D1
:1059180084F86B22C3F3835284F86C2242BFB4F834
:105928005C2242F04002A4F85C221A0442BFB4F898
:105938005C2242F08002A4F85C22580442BFB4F80A
:105948005C2242F48072A4F85C22990442BFB4F845
:105958005C2242F40072A4F85C22DA0448BFB4F86E
:105968005C22C3F3812344BF42F48062A4F85C2222
:1059780084F86D3201212046FFF7B0FB814628B339
:105988004FF4E2651AE783405B0AC4F89032ABE74C
:105998000129A9D11B044FF4007103F47C1343EAD5
:1059A8001243C4F894124FF6FE718B4288BF616BA4
:1059B800C4F8603288BF41F0100103F1010388BFC9
:1059C80061639B02E1E740F20F75F7E6A1492068A1
:1059D800FFF72AFA27F0030AA06220224946304638
:1059E8000AF10407CDE9019902F042F84946142268
:1059F800284602F03DF8CAF80490C7F80490E16A16
:105A08002046FFF7EBF9002840F0A48033234FF03D
:105A1800010908930990082320688DF8299001A9A5
:105A2800CDE90439CDE901560697FEF73FFF002876
:105A380040F09080884B0B9A1340002B54D120687B
:105A48004B4602223946FEF78CFF1AF1040F05D1A6
:105A5800824983484FF4367201F048FBDAF8043083
:105A6800180242BFB4F8721241F00101A4F8721290
:105A7800C3F3025184F87412C3F3034184F8751216
:105A8800190442BFB4F8721241F00201A4F872126C
:105A9800990A1A0F01F01E0184F8702284F8761210
:105AA800C3F30362C3F30740D9B203F0030384F8D6
:105AB800712284F877327B68C4F87832002A33D1AF
:105AC80001232363430742BF636B43F0040363630B
:105AD800CF0742BF636B43F080036363636B880740
:105AE80044BF43F040036363636B59072ED500211D
:105AF800039120226960304601F0BAFFE16A20462E
:105B0800FFF76CF968B90623CDE903060893012766
:105B1800022320688DF8297029460993FEF7C6FEEE
:105B280080B140F2127549E6012A01D10223C8E783
:105B3800022AC7D104232363B4F872329A07C1D565
:105B48000823BEE720683946FEF785FF2046FFF7A1
:105B580027FA10B140F2117530E620684FF4007151
:105B6800FEF7E0FD0546002870D194F89B22032A31
:105B78000ED0014601222046FFF7B0F808B90123EC
:105B88003FE0B0F5E16F3FF419AE40F21B7515E642
:105B980094F8983213BB84F8982223689B6DDA0432
:105BA80025D5032200212046FFF798F8F8B90323EA
:105BB80084F898322068E3692A4913B1994228BFCA
:105BC8001946FFF731F92369A06203B1984794F8A1
:105BD8009832023B012B3FF6F1ADD6E7032BDCD020
:105BE800042B07D0022B15D0012BCED126E004239D
:105BF80084F89832042200212046FFF76FF830B964
:105C0800042384F898322068E3691749D5E702230A
:105C180084F8983223689B6D9B040CD502220021DE
:105C28002046FFF75BF830B9022384F898322068E1
:105C3800E3690E49C1E7012384F898320122002163
:105C48002046FFF74BF800289FD198E740F20A75E5
:105C5800B4E500BF40787D010800F9FFC27EFF1F50
:105C6800B77FFF1F00D4650C80F0FA0200E1F5054C
:105C7800636B43F0080347F0804763630021039197
:105C8800182269600AA801F0F3FE2923CDE9083734
:105C980004238DF829304FF47A7901270021204612
:105CA800FFF79CF800287FF41CADCDE903062946D0
:105CB8002068FEF7FBFD074600287FF419AD0B9B13
:105CC800002BBFF60BAD5F0048BF626BC4F83C32D7
:105CD80044BF42F002026263D80142BF626B42F0E5
:105CE80020026263636B99067FF509AD63691BB196
